{
	"Proyecto/Vote.sol": {
		"VotingSystem": {
			"abi": [
				{
					"anonymous": false,
					"inputs": [
						{
							"indexed": true,
							"internalType": "address",
							"name": "voter",
							"type": "address"
						},
						{
							"indexed": false,
							"internalType": "bool",
							"name": "vote",
							"type": "bool"
						},
						{
							"indexed": false,
							"internalType": "bytes32",
							"name": "signatureHash",
							"type": "bytes32"
						}
					],
					"name": "VoteCast",
					"type": "event"
				},
				{
					"inputs": [
						{
							"internalType": "address",
							"name": "",
							"type": "address"
						}
					],
					"name": "hasVoted",
					"outputs": [
						{
							"internalType": "bool",
							"name": "",
							"type": "bool"
						}
					],
					"stateMutability": "view",
					"type": "function"
				},
				{
					"inputs": [],
					"name": "noVotes",
					"outputs": [
						{
							"internalType": "uint256",
							"name": "",
							"type": "uint256"
						}
					],
					"stateMutability": "view",
					"type": "function"
				},
				{
					"inputs": [
						{
							"internalType": "bool",
							"name": "_vote",
							"type": "bool"
						},
						{
							"internalType": "bytes32",
							"name": "_signatureHash",
							"type": "bytes32"
						}
					],
					"name": "vote",
					"outputs": [],
					"stateMutability": "nonpayable",
					"type": "function"
				},
				{
					"inputs": [
						{
							"internalType": "address",
							"name": "",
							"type": "address"
						}
					],
					"name": "voteSignatureHash",
					"outputs": [
						{
							"internalType": "bytes32",
							"name": "",
							"type": "bytes32"
						}
					],
					"stateMutability": "view",
					"type": "function"
				},
				{
					"inputs": [],
					"name": "yesVotes",
					"outputs": [
						{
							"internalType": "uint256",
							"name": "",
							"type": "uint256"
						}
					],
					"stateMutability": "view",
					"type": "function"
				}
			],
			"devdoc": {
				"kind": "dev",
				"methods": {},
				"version": 1
			},
			"evm": {
				"assembly": "    /* \"Proyecto/Vote.sol\":61:1041  contract VotingSystem {... */\n  mstore(0x40, 0x80)\n  callvalue\n  dup1\n  iszero\n  tag_1\n  jumpi\n  0x00\n  dup1\n  revert\ntag_1:\n  pop\n  dataSize(sub_0)\n  dup1\n  dataOffset(sub_0)\n  0x00\n  codecopy\n  0x00\n  return\nstop\n\nsub_0: assembly {\n        /* \"Proyecto/Vote.sol\":61:1041  contract VotingSystem {... */\n      mstore(0x40, 0x80)\n      callvalue\n      dup1\n      iszero\n      tag_1\n      jumpi\n      0x00\n      dup1\n      revert\n    tag_1:\n      pop\n      jumpi(tag_2, lt(calldatasize, 0x04))\n      shr(0xe0, calldataload(0x00))\n      dup1\n      0x09eef43e\n      eq\n      tag_3\n      jumpi\n      dup1\n      0x291c58b2\n      eq\n      tag_4\n      jumpi\n      dup1\n      0x9c9b3b47\n      eq\n      tag_5\n      jumpi\n      dup1\n      0xb5b47f42\n      eq\n      tag_6\n      jumpi\n      dup1\n      0xfb286c65\n      eq\n      tag_7\n      jumpi\n    tag_2:\n      0x00\n      dup1\n      revert\n        /* \"Proyecto/Vote.sol\":177:217  mapping(address => bool) public hasVoted */\n    tag_3:\n      tag_8\n      0x04\n      dup1\n      calldatasize\n      sub\n      dup2\n      add\n      swap1\n      tag_9\n      swap2\n      swap1\n      tag_10\n      jump\t// in\n    tag_9:\n      tag_11\n      jump\t// in\n    tag_8:\n      mload(0x40)\n      tag_12\n      swap2\n      swap1\n      tag_13\n      jump\t// in\n    tag_12:\n      mload(0x40)\n      dup1\n      swap2\n      sub\n      swap1\n      return\n        /* \"Proyecto/Vote.sol\":555:1038  function vote(bool _vote, bytes32 _signatureHash) external {... */\n    tag_4:\n      tag_14\n      0x04\n      dup1\n      calldatasize\n      sub\n      dup2\n      add\n      swap1\n      tag_15\n      swap2\n      swap1\n      tag_16\n      jump\t// in\n    tag_15:\n      tag_17\n      jump\t// in\n    tag_14:\n      stop\n        /* \"Proyecto/Vote.sol\":224:276  mapping(address => bytes32) public voteSignatureHash */\n    tag_5:\n      tag_18\n      0x04\n      dup1\n      calldatasize\n      sub\n      dup2\n      add\n      swap1\n      tag_19\n      swap2\n      swap1\n      tag_10\n      jump\t// in\n    tag_19:\n      tag_20\n      jump\t// in\n    tag_18:\n      mload(0x40)\n      tag_21\n      swap2\n      swap1\n      tag_22\n      jump\t// in\n    tag_21:\n      mload(0x40)\n      dup1\n      swap2\n      sub\n      swap1\n      return\n        /* \"Proyecto/Vote.sol\":362:384  uint256 public noVotes */\n    tag_6:\n      tag_23\n      tag_24\n      jump\t// in\n    tag_23:\n      mload(0x40)\n      tag_25\n      swap2\n      swap1\n      tag_26\n      jump\t// in\n    tag_25:\n      mload(0x40)\n      dup1\n      swap2\n      sub\n      swap1\n      return\n        /* \"Proyecto/Vote.sol\":332:355  uint256 public yesVotes */\n    tag_7:\n      tag_27\n      tag_28\n      jump\t// in\n    tag_27:\n      mload(0x40)\n      tag_29\n      swap2\n      swap1\n      tag_26\n      jump\t// in\n    tag_29:\n      mload(0x40)\n      dup1\n      swap2\n      sub\n      swap1\n      return\n        /* \"Proyecto/Vote.sol\":177:217  mapping(address => bool) public hasVoted */\n    tag_11:\n      mstore(0x20, 0x00)\n      dup1\n      0x00\n      mstore\n      keccak256(0x00, 0x40)\n      0x00\n      swap2\n      pop\n      sload\n      swap1\n      0x0100\n      exp\n      swap1\n      div\n      0xff\n      and\n      dup2\n      jump\t// out\n        /* \"Proyecto/Vote.sol\":555:1038  function vote(bool _vote, bytes32 _signatureHash) external {... */\n    tag_17:\n        /* \"Proyecto/Vote.sol\":634:642  hasVoted */\n      0x00\n        /* \"Proyecto/Vote.sol\":634:654  hasVoted[msg.sender] */\n      dup1\n        /* \"Proyecto/Vote.sol\":643:653  msg.sender */\n      caller\n        /* \"Proyecto/Vote.sol\":634:654  hasVoted[msg.sender] */\n      0xffffffffffffffffffffffffffffffffffffffff\n      and\n      0xffffffffffffffffffffffffffffffffffffffff\n      and\n      dup2\n      mstore\n      0x20\n      add\n      swap1\n      dup2\n      mstore\n      0x20\n      add\n      0x00\n      keccak256\n      0x00\n      swap1\n      sload\n      swap1\n      0x0100\n      exp\n      swap1\n      div\n      0xff\n      and\n        /* \"Proyecto/Vote.sol\":633:654  !hasVoted[msg.sender] */\n      iszero\n        /* \"Proyecto/Vote.sol\":625:672  require(!hasVoted[msg.sender], \"Ya has votado\") */\n      tag_31\n      jumpi\n      mload(0x40)\n      0x08c379a000000000000000000000000000000000000000000000000000000000\n      dup2\n      mstore\n      0x04\n      add\n      tag_32\n      swap1\n      tag_33\n      jump\t// in\n    tag_32:\n      mload(0x40)\n      dup1\n      swap2\n      sub\n      swap1\n      revert\n    tag_31:\n        /* \"Proyecto/Vote.sol\":706:710  true */\n      0x01\n        /* \"Proyecto/Vote.sol\":683:691  hasVoted */\n      0x00\n        /* \"Proyecto/Vote.sol\":683:703  hasVoted[msg.sender] */\n      dup1\n        /* \"Proyecto/Vote.sol\":692:702  msg.sender */\n      caller\n        /* \"Proyecto/Vote.sol\":683:703  hasVoted[msg.sender] */\n      0xffffffffffffffffffffffffffffffffffffffff\n      and\n      0xffffffffffffffffffffffffffffffffffffffff\n      and\n      dup2\n      mstore\n      0x20\n      add\n      swap1\n      dup2\n      mstore\n      0x20\n      add\n      0x00\n      keccak256\n      0x00\n        /* \"Proyecto/Vote.sol\":683:710  hasVoted[msg.sender] = true */\n      0x0100\n      exp\n      dup2\n      sload\n      dup2\n      0xff\n      mul\n      not\n      and\n      swap1\n      dup4\n      iszero\n      iszero\n      mul\n      or\n      swap1\n      sstore\n      pop\n        /* \"Proyecto/Vote.sol\":753:767  _signatureHash */\n      dup1\n        /* \"Proyecto/Vote.sol\":721:738  voteSignatureHash */\n      0x01\n        /* \"Proyecto/Vote.sol\":721:750  voteSignatureHash[msg.sender] */\n      0x00\n        /* \"Proyecto/Vote.sol\":739:749  msg.sender */\n      caller\n        /* \"Proyecto/Vote.sol\":721:750  voteSignatureHash[msg.sender] */\n      0xffffffffffffffffffffffffffffffffffffffff\n      and\n      0xffffffffffffffffffffffffffffffffffffffff\n      and\n      dup2\n      mstore\n      0x20\n      add\n      swap1\n      dup2\n      mstore\n      0x20\n      add\n      0x00\n      keccak256\n        /* \"Proyecto/Vote.sol\":721:767  voteSignatureHash[msg.sender] = _signatureHash */\n      dup2\n      swap1\n      sstore\n      pop\n        /* \"Proyecto/Vote.sol\":794:799  _vote */\n      dup2\n        /* \"Proyecto/Vote.sol\":790:880  if (_vote) {... */\n      iszero\n      tag_34\n      jumpi\n        /* \"Proyecto/Vote.sol\":816:824  yesVotes */\n      0x02\n      0x00\n        /* \"Proyecto/Vote.sol\":816:826  yesVotes++ */\n      dup2\n      sload\n      dup1\n      swap3\n      swap2\n      swap1\n      tag_35\n      swap1\n      tag_36\n      jump\t// in\n    tag_35:\n      swap2\n      swap1\n      pop\n      sstore\n      pop\n        /* \"Proyecto/Vote.sol\":790:880  if (_vote) {... */\n      jump(tag_37)\n    tag_34:\n        /* \"Proyecto/Vote.sol\":859:866  noVotes */\n      0x03\n      0x00\n        /* \"Proyecto/Vote.sol\":859:868  noVotes++ */\n      dup2\n      sload\n      dup1\n      swap3\n      swap2\n      swap1\n      tag_38\n      swap1\n      tag_36\n      jump\t// in\n    tag_38:\n      swap2\n      swap1\n      pop\n      sstore\n      pop\n        /* \"Proyecto/Vote.sol\":790:880  if (_vote) {... */\n    tag_37:\n        /* \"Proyecto/Vote.sol\":996:1006  msg.sender */\n      caller\n        /* \"Proyecto/Vote.sol\":987:1030  VoteCast(msg.sender, _vote, _signatureHash) */\n      0xffffffffffffffffffffffffffffffffffffffff\n      and\n      0xeb564de90bf26315286cc5a9c54eff9fd2f2d573f5f33c4601f97a8fb4812038\n        /* \"Proyecto/Vote.sol\":1008:1013  _vote */\n      dup4\n        /* \"Proyecto/Vote.sol\":1015:1029  _signatureHash */\n      dup4\n        /* \"Proyecto/Vote.sol\":987:1030  VoteCast(msg.sender, _vote, _signatureHash) */\n      mload(0x40)\n      tag_39\n      swap3\n      swap2\n      swap1\n      tag_40\n      jump\t// in\n    tag_39:\n      mload(0x40)\n      dup1\n      swap2\n      sub\n      swap1\n      log2\n        /* \"Proyecto/Vote.sol\":555:1038  function vote(bool _vote, bytes32 _signatureHash) external {... */\n      pop\n      pop\n      jump\t// out\n        /* \"Proyecto/Vote.sol\":224:276  mapping(address => bytes32) public voteSignatureHash */\n    tag_20:\n      mstore(0x20, 0x01)\n      dup1\n      0x00\n      mstore\n      keccak256(0x00, 0x40)\n      0x00\n      swap2\n      pop\n      swap1\n      pop\n      sload\n      dup2\n      jump\t// out\n        /* \"Proyecto/Vote.sol\":362:384  uint256 public noVotes */\n    tag_24:\n      sload(0x03)\n      dup2\n      jump\t// out\n        /* \"Proyecto/Vote.sol\":332:355  uint256 public yesVotes */\n    tag_28:\n      sload(0x02)\n      dup2\n      jump\t// out\n        /* \"#utility.yul\":88:205   */\n    tag_42:\n        /* \"#utility.yul\":197:198   */\n      0x00\n        /* \"#utility.yul\":194:195   */\n      dup1\n        /* \"#utility.yul\":187:199   */\n      revert\n        /* \"#utility.yul\":334:460   */\n    tag_44:\n        /* \"#utility.yul\":371:378   */\n      0x00\n        /* \"#utility.yul\":411:453   */\n      0xffffffffffffffffffffffffffffffffffffffff\n        /* \"#utility.yul\":404:409   */\n      dup3\n        /* \"#utility.yul\":400:454   */\n      and\n        /* \"#utility.yul\":389:454   */\n      swap1\n      pop\n        /* \"#utility.yul\":334:460   */\n      swap2\n      swap1\n      pop\n      jump\t// out\n        /* \"#utility.yul\":466:562   */\n    tag_45:\n        /* \"#utility.yul\":503:510   */\n      0x00\n        /* \"#utility.yul\":532:556   */\n      tag_68\n        /* \"#utility.yul\":550:555   */\n      dup3\n        /* \"#utility.yul\":532:556   */\n      tag_44\n      jump\t// in\n    tag_68:\n        /* \"#utility.yul\":521:556   */\n      swap1\n      pop\n        /* \"#utility.yul\":466:562   */\n      swap2\n      swap1\n      pop\n      jump\t// out\n        /* \"#utility.yul\":568:690   */\n    tag_46:\n        /* \"#utility.yul\":641:665   */\n      tag_70\n        /* \"#utility.yul\":659:664   */\n      dup2\n        /* \"#utility.yul\":641:665   */\n      tag_45\n      jump\t// in\n    tag_70:\n        /* \"#utility.yul\":634:639   */\n      dup2\n        /* \"#utility.yul\":631:666   */\n      eq\n        /* \"#utility.yul\":621:684   */\n      tag_71\n      jumpi\n        /* \"#utility.yul\":680:681   */\n      0x00\n        /* \"#utility.yul\":677:678   */\n      dup1\n        /* \"#utility.yul\":670:682   */\n      revert\n        /* \"#utility.yul\":621:684   */\n    tag_71:\n        /* \"#utility.yul\":568:690   */\n      pop\n      jump\t// out\n        /* \"#utility.yul\":696:835   */\n    tag_47:\n        /* \"#utility.yul\":742:747   */\n      0x00\n        /* \"#utility.yul\":780:786   */\n      dup2\n        /* \"#utility.yul\":767:787   */\n      calldataload\n        /* \"#utility.yul\":758:787   */\n      swap1\n      pop\n        /* \"#utility.yul\":796:829   */\n      tag_73\n        /* \"#utility.yul\":823:828   */\n      dup2\n        /* \"#utility.yul\":796:829   */\n      tag_46\n      jump\t// in\n    tag_73:\n        /* \"#utility.yul\":696:835   */\n      swap3\n      swap2\n      pop\n      pop\n      jump\t// out\n        /* \"#utility.yul\":841:1170   */\n    tag_10:\n        /* \"#utility.yul\":900:906   */\n      0x00\n        /* \"#utility.yul\":949:951   */\n      0x20\n        /* \"#utility.yul\":937:946   */\n      dup3\n        /* \"#utility.yul\":928:935   */\n      dup5\n        /* \"#utility.yul\":924:947   */\n      sub\n        /* \"#utility.yul\":920:952   */\n      slt\n        /* \"#utility.yul\":917:1036   */\n      iszero\n      tag_75\n      jumpi\n        /* \"#utility.yul\":955:1034   */\n      tag_76\n      tag_42\n      jump\t// in\n    tag_76:\n        /* \"#utility.yul\":917:1036   */\n    tag_75:\n        /* \"#utility.yul\":1075:1076   */\n      0x00\n        /* \"#utility.yul\":1100:1153   */\n      tag_77\n        /* \"#utility.yul\":1145:1152   */\n      dup5\n        /* \"#utility.yul\":1136:1142   */\n      dup3\n        /* \"#utility.yul\":1125:1134   */\n      dup6\n        /* \"#utility.yul\":1121:1143   */\n      add\n        /* \"#utility.yul\":1100:1153   */\n      tag_47\n      jump\t// in\n    tag_77:\n        /* \"#utility.yul\":1090:1153   */\n      swap2\n      pop\n        /* \"#utility.yul\":1046:1163   */\n      pop\n        /* \"#utility.yul\":841:1170   */\n      swap3\n      swap2\n      pop\n      pop\n      jump\t// out\n        /* \"#utility.yul\":1176:1266   */\n    tag_48:\n        /* \"#utility.yul\":1210:1217   */\n      0x00\n        /* \"#utility.yul\":1253:1258   */\n      dup2\n        /* \"#utility.yul\":1246:1259   */\n      iszero\n        /* \"#utility.yul\":1239:1260   */\n      iszero\n        /* \"#utility.yul\":1228:1260   */\n      swap1\n      pop\n        /* \"#utility.yul\":1176:1266   */\n      swap2\n      swap1\n      pop\n      jump\t// out\n        /* \"#utility.yul\":1272:1381   */\n    tag_49:\n        /* \"#utility.yul\":1353:1374   */\n      tag_80\n        /* \"#utility.yul\":1368:1373   */\n      dup2\n        /* \"#utility.yul\":1353:1374   */\n      tag_48\n      jump\t// in\n    tag_80:\n        /* \"#utility.yul\":1348:1351   */\n      dup3\n        /* \"#utility.yul\":1341:1375   */\n      mstore\n        /* \"#utility.yul\":1272:1381   */\n      pop\n      pop\n      jump\t// out\n        /* \"#utility.yul\":1387:1597   */\n    tag_13:\n        /* \"#utility.yul\":1474:1478   */\n      0x00\n        /* \"#utility.yul\":1512:1514   */\n      0x20\n        /* \"#utility.yul\":1501:1510   */\n      dup3\n        /* \"#utility.yul\":1497:1515   */\n      add\n        /* \"#utility.yul\":1489:1515   */\n      swap1\n      pop\n        /* \"#utility.yul\":1525:1590   */\n      tag_82\n        /* \"#utility.yul\":1587:1588   */\n      0x00\n        /* \"#utility.yul\":1576:1585   */\n      dup4\n        /* \"#utility.yul\":1572:1589   */\n      add\n        /* \"#utility.yul\":1563:1569   */\n      dup5\n        /* \"#utility.yul\":1525:1590   */\n      tag_49\n      jump\t// in\n    tag_82:\n        /* \"#utility.yul\":1387:1597   */\n      swap3\n      swap2\n      pop\n      pop\n      jump\t// out\n        /* \"#utility.yul\":1603:1719   */\n    tag_50:\n        /* \"#utility.yul\":1673:1694   */\n      tag_84\n        /* \"#utility.yul\":1688:1693   */\n      dup2\n        /* \"#utility.yul\":1673:1694   */\n      tag_48\n      jump\t// in\n    tag_84:\n        /* \"#utility.yul\":1666:1671   */\n      dup2\n        /* \"#utility.yul\":1663:1695   */\n      eq\n        /* \"#utility.yul\":1653:1713   */\n      tag_85\n      jumpi\n        /* \"#utility.yul\":1709:1710   */\n      0x00\n        /* \"#utility.yul\":1706:1707   */\n      dup1\n        /* \"#utility.yul\":1699:1711   */\n      revert\n        /* \"#utility.yul\":1653:1713   */\n    tag_85:\n        /* \"#utility.yul\":1603:1719   */\n      pop\n      jump\t// out\n        /* \"#utility.yul\":1725:1858   */\n    tag_51:\n        /* \"#utility.yul\":1768:1773   */\n      0x00\n        /* \"#utility.yul\":1806:1812   */\n      dup2\n        /* \"#utility.yul\":1793:1813   */\n      calldataload\n        /* \"#utility.yul\":1784:1813   */\n      swap1\n      pop\n        /* \"#utility.yul\":1822:1852   */\n      tag_87\n        /* \"#utility.yul\":1846:1851   */\n      dup2\n        /* \"#utility.yul\":1822:1852   */\n      tag_50\n      jump\t// in\n    tag_87:\n        /* \"#utility.yul\":1725:1858   */\n      swap3\n      swap2\n      pop\n      pop\n      jump\t// out\n        /* \"#utility.yul\":1864:1941   */\n    tag_52:\n        /* \"#utility.yul\":1901:1908   */\n      0x00\n        /* \"#utility.yul\":1930:1935   */\n      dup2\n        /* \"#utility.yul\":1919:1935   */\n      swap1\n      pop\n        /* \"#utility.yul\":1864:1941   */\n      swap2\n      swap1\n      pop\n      jump\t// out\n        /* \"#utility.yul\":1947:2069   */\n    tag_53:\n        /* \"#utility.yul\":2020:2044   */\n      tag_90\n        /* \"#utility.yul\":2038:2043   */\n      dup2\n        /* \"#utility.yul\":2020:2044   */\n      tag_52\n      jump\t// in\n    tag_90:\n        /* \"#utility.yul\":2013:2018   */\n      dup2\n        /* \"#utility.yul\":2010:2045   */\n      eq\n        /* \"#utility.yul\":2000:2063   */\n      tag_91\n      jumpi\n        /* \"#utility.yul\":2059:2060   */\n      0x00\n        /* \"#utility.yul\":2056:2057   */\n      dup1\n        /* \"#utility.yul\":2049:2061   */\n      revert\n        /* \"#utility.yul\":2000:2063   */\n    tag_91:\n        /* \"#utility.yul\":1947:2069   */\n      pop\n      jump\t// out\n        /* \"#utility.yul\":2075:2214   */\n    tag_54:\n        /* \"#utility.yul\":2121:2126   */\n      0x00\n        /* \"#utility.yul\":2159:2165   */\n      dup2\n        /* \"#utility.yul\":2146:2166   */\n      calldataload\n        /* \"#utility.yul\":2137:2166   */\n      swap1\n      pop\n        /* \"#utility.yul\":2175:2208   */\n      tag_93\n        /* \"#utility.yul\":2202:2207   */\n      dup2\n        /* \"#utility.yul\":2175:2208   */\n      tag_53\n      jump\t// in\n    tag_93:\n        /* \"#utility.yul\":2075:2214   */\n      swap3\n      swap2\n      pop\n      pop\n      jump\t// out\n        /* \"#utility.yul\":2220:2688   */\n    tag_16:\n        /* \"#utility.yul\":2285:2291   */\n      0x00\n        /* \"#utility.yul\":2293:2299   */\n      dup1\n        /* \"#utility.yul\":2342:2344   */\n      0x40\n        /* \"#utility.yul\":2330:2339   */\n      dup4\n        /* \"#utility.yul\":2321:2328   */\n      dup6\n        /* \"#utility.yul\":2317:2340   */\n      sub\n        /* \"#utility.yul\":2313:2345   */\n      slt\n        /* \"#utility.yul\":2310:2429   */\n      iszero\n      tag_95\n      jumpi\n        /* \"#utility.yul\":2348:2427   */\n      tag_96\n      tag_42\n      jump\t// in\n    tag_96:\n        /* \"#utility.yul\":2310:2429   */\n    tag_95:\n        /* \"#utility.yul\":2468:2469   */\n      0x00\n        /* \"#utility.yul\":2493:2543   */\n      tag_97\n        /* \"#utility.yul\":2535:2542   */\n      dup6\n        /* \"#utility.yul\":2526:2532   */\n      dup3\n        /* \"#utility.yul\":2515:2524   */\n      dup7\n        /* \"#utility.yul\":2511:2533   */\n      add\n        /* \"#utility.yul\":2493:2543   */\n      tag_51\n      jump\t// in\n    tag_97:\n        /* \"#utility.yul\":2483:2543   */\n      swap3\n      pop\n        /* \"#utility.yul\":2439:2553   */\n      pop\n        /* \"#utility.yul\":2592:2594   */\n      0x20\n        /* \"#utility.yul\":2618:2671   */\n      tag_98\n        /* \"#utility.yul\":2663:2670   */\n      dup6\n        /* \"#utility.yul\":2654:2660   */\n      dup3\n        /* \"#utility.yul\":2643:2652   */\n      dup7\n        /* \"#utility.yul\":2639:2661   */\n      add\n        /* \"#utility.yul\":2618:2671   */\n      tag_54\n      jump\t// in\n    tag_98:\n        /* \"#utility.yul\":2608:2671   */\n      swap2\n      pop\n        /* \"#utility.yul\":2563:2681   */\n      pop\n        /* \"#utility.yul\":2220:2688   */\n      swap3\n      pop\n      swap3\n      swap1\n      pop\n      jump\t// out\n        /* \"#utility.yul\":2694:2812   */\n    tag_55:\n        /* \"#utility.yul\":2781:2805   */\n      tag_100\n        /* \"#utility.yul\":2799:2804   */\n      dup2\n        /* \"#utility.yul\":2781:2805   */\n      tag_52\n      jump\t// in\n    tag_100:\n        /* \"#utility.yul\":2776:2779   */\n      dup3\n        /* \"#utility.yul\":2769:2806   */\n      mstore\n        /* \"#utility.yul\":2694:2812   */\n      pop\n      pop\n      jump\t// out\n        /* \"#utility.yul\":2818:3040   */\n    tag_22:\n        /* \"#utility.yul\":2911:2915   */\n      0x00\n        /* \"#utility.yul\":2949:2951   */\n      0x20\n        /* \"#utility.yul\":2938:2947   */\n      dup3\n        /* \"#utility.yul\":2934:2952   */\n      add\n        /* \"#utility.yul\":2926:2952   */\n      swap1\n      pop\n        /* \"#utility.yul\":2962:3033   */\n      tag_102\n        /* \"#utility.yul\":3030:3031   */\n      0x00\n        /* \"#utility.yul\":3019:3028   */\n      dup4\n        /* \"#utility.yul\":3015:3032   */\n      add\n        /* \"#utility.yul\":3006:3012   */\n      dup5\n        /* \"#utility.yul\":2962:3033   */\n      tag_55\n      jump\t// in\n    tag_102:\n        /* \"#utility.yul\":2818:3040   */\n      swap3\n      swap2\n      pop\n      pop\n      jump\t// out\n        /* \"#utility.yul\":3046:3123   */\n    tag_56:\n        /* \"#utility.yul\":3083:3090   */\n      0x00\n        /* \"#utility.yul\":3112:3117   */\n      dup2\n        /* \"#utility.yul\":3101:3117   */\n      swap1\n      pop\n        /* \"#utility.yul\":3046:3123   */\n      swap2\n      swap1\n      pop\n      jump\t// out\n        /* \"#utility.yul\":3129:3247   */\n    tag_57:\n        /* \"#utility.yul\":3216:3240   */\n      tag_105\n        /* \"#utility.yul\":3234:3239   */\n      dup2\n        /* \"#utility.yul\":3216:3240   */\n      tag_56\n      jump\t// in\n    tag_105:\n        /* \"#utility.yul\":3211:3214   */\n      dup3\n        /* \"#utility.yul\":3204:3241   */\n      mstore\n        /* \"#utility.yul\":3129:3247   */\n      pop\n      pop\n      jump\t// out\n        /* \"#utility.yul\":3253:3475   */\n    tag_26:\n        /* \"#utility.yul\":3346:3350   */\n      0x00\n        /* \"#utility.yul\":3384:3386   */\n      0x20\n        /* \"#utility.yul\":3373:3382   */\n      dup3\n        /* \"#utility.yul\":3369:3387   */\n      add\n        /* \"#utility.yul\":3361:3387   */\n      swap1\n      pop\n        /* \"#utility.yul\":3397:3468   */\n      tag_107\n        /* \"#utility.yul\":3465:3466   */\n      0x00\n        /* \"#utility.yul\":3454:3463   */\n      dup4\n        /* \"#utility.yul\":3450:3467   */\n      add\n        /* \"#utility.yul\":3441:3447   */\n      dup5\n        /* \"#utility.yul\":3397:3468   */\n      tag_57\n      jump\t// in\n    tag_107:\n        /* \"#utility.yul\":3253:3475   */\n      swap3\n      swap2\n      pop\n      pop\n      jump\t// out\n        /* \"#utility.yul\":3481:3650   */\n    tag_58:\n        /* \"#utility.yul\":3565:3576   */\n      0x00\n        /* \"#utility.yul\":3599:3605   */\n      dup3\n        /* \"#utility.yul\":3594:3597   */\n      dup3\n        /* \"#utility.yul\":3587:3606   */\n      mstore\n        /* \"#utility.yul\":3639:3643   */\n      0x20\n        /* \"#utility.yul\":3634:3637   */\n      dup3\n        /* \"#utility.yul\":3630:3644   */\n      add\n        /* \"#utility.yul\":3615:3644   */\n      swap1\n      pop\n        /* \"#utility.yul\":3481:3650   */\n      swap3\n      swap2\n      pop\n      pop\n      jump\t// out\n        /* \"#utility.yul\":3656:3819   */\n    tag_59:\n        /* \"#utility.yul\":3796:3811   */\n      0x59612068617320766f7461646f00000000000000000000000000000000000000\n        /* \"#utility.yul\":3792:3793   */\n      0x00\n        /* \"#utility.yul\":3784:3790   */\n      dup3\n        /* \"#utility.yul\":3780:3794   */\n      add\n        /* \"#utility.yul\":3773:3812   */\n      mstore\n        /* \"#utility.yul\":3656:3819   */\n      pop\n      jump\t// out\n        /* \"#utility.yul\":3825:4191   */\n    tag_60:\n        /* \"#utility.yul\":3967:3970   */\n      0x00\n        /* \"#utility.yul\":3988:4055   */\n      tag_111\n        /* \"#utility.yul\":4052:4054   */\n      0x0d\n        /* \"#utility.yul\":4047:4050   */\n      dup4\n        /* \"#utility.yul\":3988:4055   */\n      tag_58\n      jump\t// in\n    tag_111:\n        /* \"#utility.yul\":3981:4055   */\n      swap2\n      pop\n        /* \"#utility.yul\":4064:4157   */\n      tag_112\n        /* \"#utility.yul\":4153:4156   */\n      dup3\n        /* \"#utility.yul\":4064:4157   */\n      tag_59\n      jump\t// in\n    tag_112:\n        /* \"#utility.yul\":4182:4184   */\n      0x20\n        /* \"#utility.yul\":4177:4180   */\n      dup3\n        /* \"#utility.yul\":4173:4185   */\n      add\n        /* \"#utility.yul\":4166:4185   */\n      swap1\n      pop\n        /* \"#utility.yul\":3825:4191   */\n      swap2\n      swap1\n      pop\n      jump\t// out\n        /* \"#utility.yul\":4197:4616   */\n    tag_33:\n        /* \"#utility.yul\":4363:4367   */\n      0x00\n        /* \"#utility.yul\":4401:4403   */\n      0x20\n        /* \"#utility.yul\":4390:4399   */\n      dup3\n        /* \"#utility.yul\":4386:4404   */\n      add\n        /* \"#utility.yul\":4378:4404   */\n      swap1\n      pop\n        /* \"#utility.yul\":4450:4459   */\n      dup2\n        /* \"#utility.yul\":4444:4448   */\n      dup2\n        /* \"#utility.yul\":4440:4460   */\n      sub\n        /* \"#utility.yul\":4436:4437   */\n      0x00\n        /* \"#utility.yul\":4425:4434   */\n      dup4\n        /* \"#utility.yul\":4421:4438   */\n      add\n        /* \"#utility.yul\":4414:4461   */\n      mstore\n        /* \"#utility.yul\":4478:4609   */\n      tag_114\n        /* \"#utility.yul\":4604:4608   */\n      dup2\n        /* \"#utility.yul\":4478:4609   */\n      tag_60\n      jump\t// in\n    tag_114:\n        /* \"#utility.yul\":4470:4609   */\n      swap1\n      pop\n        /* \"#utility.yul\":4197:4616   */\n      swap2\n      swap1\n      pop\n      jump\t// out\n        /* \"#utility.yul\":4622:4802   */\n    tag_61:\n        /* \"#utility.yul\":4670:4747   */\n      0x4e487b7100000000000000000000000000000000000000000000000000000000\n        /* \"#utility.yul\":4667:4668   */\n      0x00\n        /* \"#utility.yul\":4660:4748   */\n      mstore\n        /* \"#utility.yul\":4767:4771   */\n      0x11\n        /* \"#utility.yul\":4764:4765   */\n      0x04\n        /* \"#utility.yul\":4757:4772   */\n      mstore\n        /* \"#utility.yul\":4791:4795   */\n      0x24\n        /* \"#utility.yul\":4788:4789   */\n      0x00\n        /* \"#utility.yul\":4781:4796   */\n      revert\n        /* \"#utility.yul\":4808:5041   */\n    tag_36:\n        /* \"#utility.yul\":4847:4850   */\n      0x00\n        /* \"#utility.yul\":4870:4894   */\n      tag_117\n        /* \"#utility.yul\":4888:4893   */\n      dup3\n        /* \"#utility.yul\":4870:4894   */\n      tag_56\n      jump\t// in\n    tag_117:\n        /* \"#utility.yul\":4861:4894   */\n      swap2\n      pop\n        /* \"#utility.yul\":4916:4982   */\n      0xffffffffffffffffffffffffffffffffffffffffffffffffffffffffffffffff\n        /* \"#utility.yul\":4909:4914   */\n      dup3\n        /* \"#utility.yul\":4906:4983   */\n      sub\n        /* \"#utility.yul\":4903:5006   */\n      tag_118\n      jumpi\n        /* \"#utility.yul\":4986:5004   */\n      tag_119\n      tag_61\n      jump\t// in\n    tag_119:\n        /* \"#utility.yul\":4903:5006   */\n    tag_118:\n        /* \"#utility.yul\":5033:5034   */\n      0x01\n        /* \"#utility.yul\":5026:5031   */\n      dup3\n        /* \"#utility.yul\":5022:5035   */\n      add\n        /* \"#utility.yul\":5015:5035   */\n      swap1\n      pop\n        /* \"#utility.yul\":4808:5041   */\n      swap2\n      swap1\n      pop\n      jump\t// out\n        /* \"#utility.yul\":5047:5367   */\n    tag_40:\n        /* \"#utility.yul\":5162:5166   */\n      0x00\n        /* \"#utility.yul\":5200:5202   */\n      0x40\n        /* \"#utility.yul\":5189:5198   */\n      dup3\n        /* \"#utility.yul\":5185:5203   */\n      add\n        /* \"#utility.yul\":5177:5203   */\n      swap1\n      pop\n        /* \"#utility.yul\":5213:5278   */\n      tag_121\n        /* \"#utility.yul\":5275:5276   */\n      0x00\n        /* \"#utility.yul\":5264:5273   */\n      dup4\n        /* \"#utility.yul\":5260:5277   */\n      add\n        /* \"#utility.yul\":5251:5257   */\n      dup6\n        /* \"#utility.yul\":5213:5278   */\n      tag_49\n      jump\t// in\n    tag_121:\n        /* \"#utility.yul\":5288:5360   */\n      tag_122\n        /* \"#utility.yul\":5356:5358   */\n      0x20\n        /* \"#utility.yul\":5345:5354   */\n      dup4\n        /* \"#utility.yul\":5341:5359   */\n      add\n        /* \"#utility.yul\":5332:5338   */\n      dup5\n        /* \"#utility.yul\":5288:5360   */\n      tag_55\n      jump\t// in\n    tag_122:\n        /* \"#utility.yul\":5047:5367   */\n      swap4\n      swap3\n      pop\n      pop\n      pop\n      jump\t// out\n\n    auxdata: 0xa264697066735822122068bffc08f42957a5cb7b6e614a077b2974eb863fb6dd16a35df4c1314363fe0e64736f6c63430008140033\n}\n",
				"bytecode": {
					"linkReferences": {},
					"object": "608060405234801561000f575f80fd5b506105f48061001d5f395ff3fe608060405234801561000f575f80fd5b5060043610610055575f3560e01c806309eef43e14610059578063291c58b2146100895780639c9b3b47146100a5578063b5b47f42146100d5578063fb286c65146100f3575b5f80fd5b610073600480360381019061006e9190610359565b610111565b604051610080919061039e565b60405180910390f35b6100a3600480360381019061009e9190610414565b61012d565b005b6100bf60048036038101906100ba9190610359565b6102da565b6040516100cc9190610461565b60405180910390f35b6100dd6102ef565b6040516100ea9190610492565b60405180910390f35b6100fb6102f5565b6040516101089190610492565b60405180910390f35b5f602052805f5260405f205f915054906101000a900460ff1681565b5f803373ffffffffffffffffffffffffffffffffffffffff1673ffffffffffffffffffffffffffffffffffffffff1681526020019081526020015f205f9054906101000a900460ff16156101b6576040517f08c379a00000000000000000000000000000000000000000000000000000000081526004016101ad90610505565b60405180910390fd5b60015f803373ffffffffffffffffffffffffffffffffffffffff1673ffffffffffffffffffffffffffffffffffffffff1681526020019081526020015f205f6101000a81548160ff0219169083151502179055508060015f3373ffffffffffffffffffffffffffffffffffffffff1673ffffffffffffffffffffffffffffffffffffffff1681526020019081526020015f2081905550811561026e5760025f81548092919061026490610550565b9190505550610286565b60035f81548092919061028090610550565b91905055505b3373ffffffffffffffffffffffffffffffffffffffff167feb564de90bf26315286cc5a9c54eff9fd2f2d573f5f33c4601f97a8fb481203883836040516102ce929190610597565b60405180910390a25050565b6001602052805f5260405f205f915090505481565b60035481565b60025481565b5f80fd5b5f73ffffffffffffffffffffffffffffffffffffffff82169050919050565b5f610328826102ff565b9050919050565b6103388161031e565b8114610342575f80fd5b50565b5f813590506103538161032f565b92915050565b5f6020828403121561036e5761036d6102fb565b5b5f61037b84828501610345565b91505092915050565b5f8115159050919050565b61039881610384565b82525050565b5f6020820190506103b15f83018461038f565b92915050565b6103c081610384565b81146103ca575f80fd5b50565b5f813590506103db816103b7565b92915050565b5f819050919050565b6103f3816103e1565b81146103fd575f80fd5b50565b5f8135905061040e816103ea565b92915050565b5f806040838503121561042a576104296102fb565b5b5f610437858286016103cd565b925050602061044885828601610400565b9150509250929050565b61045b816103e1565b82525050565b5f6020820190506104745f830184610452565b92915050565b5f819050919050565b61048c8161047a565b82525050565b5f6020820190506104a55f830184610483565b92915050565b5f82825260208201905092915050565b7f59612068617320766f7461646f000000000000000000000000000000000000005f82015250565b5f6104ef600d836104ab565b91506104fa826104bb565b602082019050919050565b5f6020820190508181035f83015261051c816104e3565b9050919050565b7f4e487b71000000000000000000000000000000000000000000000000000000005f52601160045260245ffd5b5f61055a8261047a565b91507fffffffffffffffffffffffffffffffffffffffffffffffffffffffffffffffff820361058c5761058b610523565b5b600182019050919050565b5f6040820190506105aa5f83018561038f565b6105b76020830184610452565b939250505056fea264697066735822122068bffc08f42957a5cb7b6e614a077b2974eb863fb6dd16a35df4c1314363fe0e64736f6c63430008140033",
					"opcodes": "PUSH1 0x80 PUSH1 0x40 MSTORE CALLVALUE DUP1 ISZERO PUSH2 0xF JUMPI PUSH0 DUP1 REVERT JUMPDEST POP PUSH2 0x5F4 DUP1 PUSH2 0x1D PUSH0 CODECOPY PUSH0 RETURN INVALID PUSH1 0x80 PUSH1 0x40 MSTORE CALLVALUE DUP1 ISZERO PUSH2 0xF JUMPI PUSH0 DUP1 REVERT JUMPDEST POP PUSH1 0x4 CALLDATASIZE LT PUSH2 0x55 JUMPI PUSH0 CALLDATALOAD PUSH1 0xE0 SHR DUP1 PUSH4 0x9EEF43E EQ PUSH2 0x59 JUMPI DUP1 PUSH4 0x291C58B2 EQ PUSH2 0x89 JUMPI DUP1 PUSH4 0x9C9B3B47 EQ PUSH2 0xA5 JUMPI DUP1 PUSH4 0xB5B47F42 EQ PUSH2 0xD5 JUMPI DUP1 PUSH4 0xFB286C65 EQ PUSH2 0xF3 JUMPI JUMPDEST PUSH0 DUP1 REVERT JUMPDEST PUSH2 0x73 PUSH1 0x4 DUP1 CALLDATASIZE SUB DUP2 ADD SWAP1 PUSH2 0x6E SWAP2 SWAP1 PUSH2 0x359 JUMP JUMPDEST PUSH2 0x111 JUMP JUMPDEST PUSH1 0x40 MLOAD PUSH2 0x80 SWAP2 SWAP1 PUSH2 0x39E JUMP JUMPDEST PUSH1 0x40 MLOAD DUP1 SWAP2 SUB SWAP1 RETURN JUMPDEST PUSH2 0xA3 PUSH1 0x4 DUP1 CALLDATASIZE SUB DUP2 ADD SWAP1 PUSH2 0x9E SWAP2 SWAP1 PUSH2 0x414 JUMP JUMPDEST PUSH2 0x12D JUMP JUMPDEST STOP JUMPDEST PUSH2 0xBF PUSH1 0x4 DUP1 CALLDATASIZE SUB DUP2 ADD SWAP1 PUSH2 0xBA SWAP2 SWAP1 PUSH2 0x359 JUMP JUMPDEST PUSH2 0x2DA JUMP JUMPDEST PUSH1 0x40 MLOAD PUSH2 0xCC SWAP2 SWAP1 PUSH2 0x461 JUMP JUMPDEST PUSH1 0x40 MLOAD DUP1 SWAP2 SUB SWAP1 RETURN JUMPDEST PUSH2 0xDD PUSH2 0x2EF JUMP JUMPDEST PUSH1 0x40 MLOAD PUSH2 0xEA SWAP2 SWAP1 PUSH2 0x492 JUMP JUMPDEST PUSH1 0x40 MLOAD DUP1 SWAP2 SUB SWAP1 RETURN JUMPDEST PUSH2 0xFB PUSH2 0x2F5 JUMP JUMPDEST PUSH1 0x40 MLOAD PUSH2 0x108 SWAP2 SWAP1 PUSH2 0x492 JUMP JUMPDEST PUSH1 0x40 MLOAD DUP1 SWAP2 SUB SWAP1 RETURN JUMPDEST PUSH0 PUSH1 0x20 MSTORE DUP1 PUSH0 MSTORE PUSH1 0x40 PUSH0 KECCAK256 PUSH0 SWAP2 POP SLOAD SWAP1 PUSH2 0x100 EXP SWAP1 DIV PUSH1 0xFF AND DUP2 JUMP JUMPDEST PUSH0 DUP1 CALLER PUSH20 0xFFFFFFFFFFFFFFFFFFFFFFFFFFFFFFFFFFFFFFFF AND PUSH20 0xFFFFFFFFFFFFFFFFFFFFFFFFFFFFFFFFFFFFFFFF AND DUP2 MSTORE PUSH1 0x20 ADD SWAP1 DUP2 MSTORE PUSH1 0x20 ADD PUSH0 KECCAK256 PUSH0 SWAP1 SLOAD SWAP1 PUSH2 0x100 EXP SWAP1 DIV PUSH1 0xFF AND ISZERO PUSH2 0x1B6 JUMPI PUSH1 0x40 MLOAD PUSH32 0x8C379A000000000000000000000000000000000000000000000000000000000 DUP2 MSTORE PUSH1 0x4 ADD PUSH2 0x1AD SWAP1 PUSH2 0x505 JUMP JUMPDEST PUSH1 0x40 MLOAD DUP1 SWAP2 SUB SWAP1 REVERT JUMPDEST PUSH1 0x1 PUSH0 DUP1 CALLER PUSH20 0xFFFFFFFFFFFFFFFFFFFFFFFFFFFFFFFFFFFFFFFF AND PUSH20 0xFFFFFFFFFFFFFFFFFFFFFFFFFFFFFFFFFFFFFFFF AND DUP2 MSTORE PUSH1 0x20 ADD SWAP1 DUP2 MSTORE PUSH1 0x20 ADD PUSH0 KECCAK256 PUSH0 PUSH2 0x100 EXP DUP2 SLOAD DUP2 PUSH1 0xFF MUL NOT AND SWAP1 DUP4 ISZERO ISZERO MUL OR SWAP1 SSTORE POP DUP1 PUSH1 0x1 PUSH0 CALLER PUSH20 0xFFFFFFFFFFFFFFFFFFFFFFFFFFFFFFFFFFFFFFFF AND PUSH20 0xFFFFFFFFFFFFFFFFFFFFFFFFFFFFFFFFFFFFFFFF AND DUP2 MSTORE PUSH1 0x20 ADD SWAP1 DUP2 MSTORE PUSH1 0x20 ADD PUSH0 KECCAK256 DUP2 SWAP1 SSTORE POP DUP2 ISZERO PUSH2 0x26E JUMPI PUSH1 0x2 PUSH0 DUP2 SLOAD DUP1 SWAP3 SWAP2 SWAP1 PUSH2 0x264 SWAP1 PUSH2 0x550 JUMP JUMPDEST SWAP2 SWAP1 POP SSTORE POP PUSH2 0x286 JUMP JUMPDEST PUSH1 0x3 PUSH0 DUP2 SLOAD DUP1 SWAP3 SWAP2 SWAP1 PUSH2 0x280 SWAP1 PUSH2 0x550 JUMP JUMPDEST SWAP2 SWAP1 POP SSTORE POP JUMPDEST CALLER PUSH20 0xFFFFFFFFFFFFFFFFFFFFFFFFFFFFFFFFFFFFFFFF AND PUSH32 0xEB564DE90BF26315286CC5A9C54EFF9FD2F2D573F5F33C4601F97A8FB4812038 DUP4 DUP4 PUSH1 0x40 MLOAD PUSH2 0x2CE SWAP3 SWAP2 SWAP1 PUSH2 0x597 JUMP JUMPDEST PUSH1 0x40 MLOAD DUP1 SWAP2 SUB SWAP1 LOG2 POP POP JUMP JUMPDEST PUSH1 0x1 PUSH1 0x20 MSTORE DUP1 PUSH0 MSTORE PUSH1 0x40 PUSH0 KECCAK256 PUSH0 SWAP2 POP SWAP1 POP SLOAD DUP2 JUMP JUMPDEST PUSH1 0x3 SLOAD DUP2 JUMP JUMPDEST PUSH1 0x2 SLOAD DUP2 JUMP JUMPDEST PUSH0 DUP1 REVERT JUMPDEST PUSH0 PUSH20 0xFFFFFFFFFFFFFFFFFFFFFFFFFFFFFFFFFFFFFFFF DUP3 AND SWAP1 POP SWAP2 SWAP1 POP JUMP JUMPDEST PUSH0 PUSH2 0x328 DUP3 PUSH2 0x2FF JUMP JUMPDEST SWAP1 POP SWAP2 SWAP1 POP JUMP JUMPDEST PUSH2 0x338 DUP2 PUSH2 0x31E JUMP JUMPDEST DUP2 EQ PUSH2 0x342 JUMPI PUSH0 DUP1 REVERT JUMPDEST POP JUMP JUMPDEST PUSH0 DUP2 CALLDATALOAD SWAP1 POP PUSH2 0x353 DUP2 PUSH2 0x32F JUMP JUMPDEST SWAP3 SWAP2 POP POP JUMP JUMPDEST PUSH0 PUSH1 0x20 DUP3 DUP5 SUB SLT ISZERO PUSH2 0x36E JUMPI PUSH2 0x36D PUSH2 0x2FB JUMP JUMPDEST JUMPDEST PUSH0 PUSH2 0x37B DUP5 DUP3 DUP6 ADD PUSH2 0x345 JUMP JUMPDEST SWAP2 POP POP SWAP3 SWAP2 POP POP JUMP JUMPDEST PUSH0 DUP2 ISZERO ISZERO SWAP1 POP SWAP2 SWAP1 POP JUMP JUMPDEST PUSH2 0x398 DUP2 PUSH2 0x384 JUMP JUMPDEST DUP3 MSTORE POP POP JUMP JUMPDEST PUSH0 PUSH1 0x20 DUP3 ADD SWAP1 POP PUSH2 0x3B1 PUSH0 DUP4 ADD DUP5 PUSH2 0x38F JUMP JUMPDEST SWAP3 SWAP2 POP POP JUMP JUMPDEST PUSH2 0x3C0 DUP2 PUSH2 0x384 JUMP JUMPDEST DUP2 EQ PUSH2 0x3CA JUMPI PUSH0 DUP1 REVERT JUMPDEST POP JUMP JUMPDEST PUSH0 DUP2 CALLDATALOAD SWAP1 POP PUSH2 0x3DB DUP2 PUSH2 0x3B7 JUMP JUMPDEST SWAP3 SWAP2 POP POP JUMP JUMPDEST PUSH0 DUP2 SWAP1 POP SWAP2 SWAP1 POP JUMP JUMPDEST PUSH2 0x3F3 DUP2 PUSH2 0x3E1 JUMP JUMPDEST DUP2 EQ PUSH2 0x3FD JUMPI PUSH0 DUP1 REVERT JUMPDEST POP JUMP JUMPDEST PUSH0 DUP2 CALLDATALOAD SWAP1 POP PUSH2 0x40E DUP2 PUSH2 0x3EA JUMP JUMPDEST SWAP3 SWAP2 POP POP JUMP JUMPDEST PUSH0 DUP1 PUSH1 0x40 DUP4 DUP6 SUB SLT ISZERO PUSH2 0x42A JUMPI PUSH2 0x429 PUSH2 0x2FB JUMP JUMPDEST JUMPDEST PUSH0 PUSH2 0x437 DUP6 DUP3 DUP7 ADD PUSH2 0x3CD JUMP JUMPDEST SWAP3 POP POP PUSH1 0x20 PUSH2 0x448 DUP6 DUP3 DUP7 ADD PUSH2 0x400 JUMP JUMPDEST SWAP2 POP POP SWAP3 POP SWAP3 SWAP1 POP JUMP JUMPDEST PUSH2 0x45B DUP2 PUSH2 0x3E1 JUMP JUMPDEST DUP3 MSTORE POP POP JUMP JUMPDEST PUSH0 PUSH1 0x20 DUP3 ADD SWAP1 POP PUSH2 0x474 PUSH0 DUP4 ADD DUP5 PUSH2 0x452 JUMP JUMPDEST SWAP3 SWAP2 POP POP JUMP JUMPDEST PUSH0 DUP2 SWAP1 POP SWAP2 SWAP1 POP JUMP JUMPDEST PUSH2 0x48C DUP2 PUSH2 0x47A JUMP JUMPDEST DUP3 MSTORE POP POP JUMP JUMPDEST PUSH0 PUSH1 0x20 DUP3 ADD SWAP1 POP PUSH2 0x4A5 PUSH0 DUP4 ADD DUP5 PUSH2 0x483 JUMP JUMPDEST SWAP3 SWAP2 POP POP JUMP JUMPDEST PUSH0 DUP3 DUP3 MSTORE PUSH1 0x20 DUP3 ADD SWAP1 POP SWAP3 SWAP2 POP POP JUMP JUMPDEST PUSH32 0x59612068617320766F7461646F00000000000000000000000000000000000000 PUSH0 DUP3 ADD MSTORE POP JUMP JUMPDEST PUSH0 PUSH2 0x4EF PUSH1 0xD DUP4 PUSH2 0x4AB JUMP JUMPDEST SWAP2 POP PUSH2 0x4FA DUP3 PUSH2 0x4BB JUMP JUMPDEST PUSH1 0x20 DUP3 ADD SWAP1 POP SWAP2 SWAP1 POP JUMP JUMPDEST PUSH0 PUSH1 0x20 DUP3 ADD SWAP1 POP DUP2 DUP2 SUB PUSH0 DUP4 ADD MSTORE PUSH2 0x51C DUP2 PUSH2 0x4E3 JUMP JUMPDEST SWAP1 POP SWAP2 SWAP1 POP JUMP JUMPDEST PUSH32 0x4E487B7100000000000000000000000000000000000000000000000000000000 PUSH0 MSTORE PUSH1 0x11 PUSH1 0x4 MSTORE PUSH1 0x24 PUSH0 REVERT JUMPDEST PUSH0 PUSH2 0x55A DUP3 PUSH2 0x47A JUMP JUMPDEST SWAP2 POP PUSH32 0xFFFFFFFFFFFFFFFFFFFFFFFFFFFFFFFFFFFFFFFFFFFFFFFFFFFFFFFFFFFFFFFF DUP3 SUB PUSH2 0x58C JUMPI PUSH2 0x58B PUSH2 0x523 JUMP JUMPDEST JUMPDEST PUSH1 0x1 DUP3 ADD SWAP1 POP SWAP2 SWAP1 POP JUMP JUMPDEST PUSH0 PUSH1 0x40 DUP3 ADD SWAP1 POP PUSH2 0x5AA PUSH0 DUP4 ADD DUP6 PUSH2 0x38F JUMP JUMPDEST PUSH2 0x5B7 PUSH1 0x20 DUP4 ADD DUP5 PUSH2 0x452 JUMP JUMPDEST SWAP4 SWAP3 POP POP POP JUMP INVALID LOG2 PUSH5 0x6970667358 0x22 SLT KECCAK256 PUSH9 0xBFFC08F42957A5CB7B PUSH15 0x614A077B2974EB863FB6DD16A35DF4 0xC1 BALANCE NUMBER PUSH4 0xFE0E6473 PUSH16 0x6C634300081400330000000000000000 "
				},
				"gasEstimates": {
					"creation": {
						"codeDepositCost": "304800",
						"executionCost": "341",
						"totalCost": "305141"
					},
					"external": {
						"hasVoted(address)": "2810",
						"noVotes()": "2469",
						"vote(bool,bytes32)": "infinite",
						"voteSignatureHash(address)": "2824",
						"yesVotes()": "2491"
					}
				},
				"methodIdentifiers": {
					"hasVoted(address)": "09eef43e",
					"noVotes()": "b5b47f42",
					"vote(bool,bytes32)": "291c58b2",
					"voteSignatureHash(address)": "9c9b3b47",
					"yesVotes()": "fb286c65"
				}
			},
			"storageLayout": {
				"storage": [
					{
						"astId": 5,
						"contract": "Proyecto/Vote.sol:VotingSystem",
						"label": "hasVoted",
						"offset": 0,
						"slot": "0",
						"type": "t_mapping(t_address,t_bool)"
					},
					{
						"astId": 9,
						"contract": "Proyecto/Vote.sol:VotingSystem",
						"label": "voteSignatureHash",
						"offset": 0,
						"slot": "1",
						"type": "t_mapping(t_address,t_bytes32)"
					},
					{
						"astId": 11,
						"contract": "Proyecto/Vote.sol:VotingSystem",
						"label": "yesVotes",
						"offset": 0,
						"slot": "2",
						"type": "t_uint256"
					},
					{
						"astId": 13,
						"contract": "Proyecto/Vote.sol:VotingSystem",
						"label": "noVotes",
						"offset": 0,
						"slot": "3",
						"type": "t_uint256"
					}
				],
				"types": {
					"t_address": {
						"encoding": "inplace",
						"label": "address",
						"numberOfBytes": "20"
					},
					"t_bool": {
						"encoding": "inplace",
						"label": "bool",
						"numberOfBytes": "1"
					},
					"t_bytes32": {
						"encoding": "inplace",
						"label": "bytes32",
						"numberOfBytes": "32"
					},
					"t_mapping(t_address,t_bool)": {
						"encoding": "mapping",
						"key": "t_address",
						"label": "mapping(address => bool)",
						"numberOfBytes": "32",
						"value": "t_bool"
					},
					"t_mapping(t_address,t_bytes32)": {
						"encoding": "mapping",
						"key": "t_address",
						"label": "mapping(address => bytes32)",
						"numberOfBytes": "32",
						"value": "t_bytes32"
					},
					"t_uint256": {
						"encoding": "inplace",
						"label": "uint256",
						"numberOfBytes": "32"
					}
				}
			},
			"userdoc": {
				"kind": "user",
				"methods": {},
				"version": 1
			}
		}
	}
}